{
    "_format": "hh-sol-artifact-1",
    "contractName": "Minter",
    "sourceName": "contracts/Minter.sol",
    "abi": [
        {
            "inputs": [
                {
                    "internalType": "address[]",
                    "name": "_validators",
                    "type": "address[]"
                },
                {
                    "internalType": "uint16",
                    "name": "_threshold",
                    "type": "uint16"
                },
                {
                    "internalType": "contract XPNet",
                    "name": "_token",
                    "type": "address"
                }
            ],
            "stateMutability": "nonpayable",
            "type": "constructor"
        },
        {
            "anonymous": false,
            "inputs": [
                {
                    "indexed": false,
                    "internalType": "uint256",
                    "name": "action_id",
                    "type": "uint256"
                },
                {
                    "indexed": false,
                    "internalType": "uint64",
                    "name": "chain_nonce",
                    "type": "uint64"
                },
                {
                    "indexed": false,
                    "internalType": "string",
                    "name": "to",
                    "type": "string"
                },
                {
                    "indexed": false,
                    "internalType": "uint256",
                    "name": "value",
                    "type": "uint256"
                }
            ],
            "name": "Transfer",
            "type": "event"
        },
        {
            "anonymous": false,
            "inputs": [
                {
                    "indexed": false,
                    "internalType": "uint256",
                    "name": "action_id",
                    "type": "uint256"
                },
                {
                    "indexed": false,
                    "internalType": "uint64",
                    "name": "chain_nonce",
                    "type": "uint64"
                },
                {
                    "indexed": false,
                    "internalType": "string",
                    "name": "to",
                    "type": "string"
                },
                {
                    "indexed": false,
                    "internalType": "uint256",
                    "name": "id",
                    "type": "uint256"
                },
                {
                    "indexed": false,
                    "internalType": "address",
                    "name": "contract_addr",
                    "type": "address"
                }
            ],
            "name": "TransferErc1155",
            "type": "event"
        },
        {
            "anonymous": false,
            "inputs": [
                {
                    "indexed": false,
                    "internalType": "uint256",
                    "name": "action_id",
                    "type": "uint256"
                },
                {
                    "indexed": false,
                    "internalType": "uint64",
                    "name": "chain_nonce",
                    "type": "uint64"
                },
                {
                    "indexed": false,
                    "internalType": "string",
                    "name": "to",
                    "type": "string"
                },
                {
                    "indexed": false,
                    "internalType": "string",
                    "name": "data",
                    "type": "string"
                }
            ],
            "name": "TransferErc721",
            "type": "event"
        },
        {
            "anonymous": false,
            "inputs": [
                {
                    "indexed": false,
                    "internalType": "uint256",
                    "name": "action_id",
                    "type": "uint256"
                },
                {
                    "indexed": false,
                    "internalType": "uint64",
                    "name": "chain_nonce",
                    "type": "uint64"
                },
                {
                    "indexed": false,
                    "internalType": "string",
                    "name": "to",
                    "type": "string"
                },
                {
                    "indexed": false,
                    "internalType": "uint256",
                    "name": "value",
                    "type": "uint256"
                }
            ],
            "name": "Unfreeze",
            "type": "event"
        },
        {
            "anonymous": false,
            "inputs": [
                {
                    "indexed": false,
                    "internalType": "uint256",
                    "name": "action_id",
                    "type": "uint256"
                },
                {
                    "indexed": false,
                    "internalType": "string",
                    "name": "to",
                    "type": "string"
                },
                {
                    "indexed": false,
                    "internalType": "string",
                    "name": "data",
                    "type": "string"
                }
            ],
            "name": "UnfreezeNft",
            "type": "event"
        },
        {
            "inputs": [
                {
                    "internalType": "uint64",
                    "name": "chain_nonce",
                    "type": "uint64"
                },
                {
                    "internalType": "string",
                    "name": "to",
                    "type": "string"
                }
            ],
            "name": "freeze",
            "outputs": [],
            "stateMutability": "payable",
            "type": "function"
        },
        {
            "inputs": [
                {
                    "internalType": "uint128",
                    "name": "action_id",
                    "type": "uint128"
                },
                {
                    "internalType": "uint64",
                    "name": "chain_nonce",
                    "type": "uint64"
                },
                {
                    "internalType": "address",
                    "name": "to",
                    "type": "address"
                },
                {
                    "internalType": "uint256",
                    "name": "value",
                    "type": "uint256"
                }
            ],
            "name": "validate_transfer",
            "outputs": [],
            "stateMutability": "nonpayable",
            "type": "function"
        },
        {
            "inputs": [
                {
                    "internalType": "uint128",
                    "name": "action_id",
                    "type": "uint128"
                },
                {
                    "internalType": "address",
                    "name": "to",
                    "type": "address"
                },
                {
                    "internalType": "string",
                    "name": "data",
                    "type": "string"
                }
            ],
            "name": "validate_transfer_nft",
            "outputs": [],
            "stateMutability": "nonpayable",
            "type": "function"
        },
        {
            "inputs": [
                {
                    "internalType": "uint128",
                    "name": "action_id",
                    "type": "uint128"
                },
                {
                    "internalType": "address payable",
                    "name": "to",
                    "type": "address"
                },
                {
                    "internalType": "uint256",
                    "name": "value",
                    "type": "uint256"
                }
            ],
            "name": "validate_unfreeze",
            "outputs": [],
            "stateMutability": "nonpayable",
            "type": "function"
        },
        {
            "inputs": [],
            "name": "validator_cnt",
            "outputs": [
                {
                    "internalType": "uint256",
                    "name": "",
                    "type": "uint256"
                }
            ],
            "stateMutability": "view",
            "type": "function"
        },
        {
            "inputs": [
                {
                    "internalType": "string",
                    "name": "to",
                    "type": "string"
                },
                {
                    "internalType": "uint64",
                    "name": "chain_nonce",
                    "type": "uint64"
                },
                {
                    "internalType": "uint256",
                    "name": "value",
                    "type": "uint256"
                }
            ],
            "name": "withdraw",
            "outputs": [],
            "stateMutability": "nonpayable",
            "type": "function"
        },
        {
            "inputs": [
                {
                    "internalType": "string",
                    "name": "to",
                    "type": "string"
                },
                {
                    "internalType": "uint256",
                    "name": "id",
                    "type": "uint256"
                }
            ],
            "name": "withdraw_nft",
            "outputs": [],
            "stateMutability": "nonpayable",
            "type": "function"
        }
    ],
    "bytecode": "0x60806040526000600155620100006002553480156200001d57600080fd5b5060405162001ee538038062001ee58339818101604052810190620000439190620002e8565b60008351116200008a576040517f08c379a00000000000000000000000000000000000000000000000000000000081526004016200008190620003c7565b60405180910390fd5b60008261ffff16118015620000a4575082518261ffff1611155b620000e6576040517f08c379a0000000000000000000000000000000000000000000000000000000008152600401620000dd90620003a5565b60405180910390fd5b60005b8351811015620001a35760026004600086848151811062000133577f4e487b7100000000000000000000000000000000000000000000000000000000600052603260045260246000fd5b602002602001015173ffffffffffffffffffffffffffffffffffffffff1673ffffffffffffffffffffffffffffffffffffffff16815260200190815260200160002060006101000a81548160ff021916908360ff16021790555080806200019a90620004e8565b915050620000e9565b5082516005819055508161ffff1660008190555080600360006101000a81548173ffffffffffffffffffffffffffffffffffffffff021916908373ffffffffffffffffffffffffffffffffffffffff16021790555050505062000645565b600062000218620002128462000412565b620003e9565b905080838252602082019050828560208602820111156200023857600080fd5b60005b858110156200026c578162000251888262000276565b8452602084019350602083019250506001810190506200023b565b5050509392505050565b6000815190506200028781620005f7565b92915050565b600082601f8301126200029f57600080fd5b8151620002b184826020860162000201565b91505092915050565b600081519050620002cb8162000611565b92915050565b600081519050620002e2816200062b565b92915050565b600080600060608486031215620002fe57600080fd5b600084015167ffffffffffffffff8111156200031957600080fd5b62000327868287016200028d565b93505060206200033a86828701620002d1565b92505060406200034d86828701620002ba565b9150509250925092565b60006200036660128362000441565b91506200037382620005a5565b602082019050919050565b60006200038d601d8362000441565b91506200039a82620005ce565b602082019050919050565b60006020820190508181036000830152620003c08162000357565b9050919050565b60006020820190508181036000830152620003e2816200037e565b9050919050565b6000620003f562000408565b9050620004038282620004b2565b919050565b6000604051905090565b600067ffffffffffffffff82111562000430576200042f62000565565b5b602082029050602081019050919050565b600082825260208201905092915050565b60006200045f8262000488565b9050919050565b6000620004738262000452565b9050919050565b600061ffff82169050919050565b600073ffffffffffffffffffffffffffffffffffffffff82169050919050565b6000819050919050565b620004bd8262000594565b810181811067ffffffffffffffff82111715620004df57620004de62000565565b5b80604052505050565b6000620004f582620004a8565b91507fffffffffffffffffffffffffffffffffffffffffffffffffffffffffffffffff8214156200052b576200052a62000536565b5b600182019050919050565b7f4e487b7100000000000000000000000000000000000000000000000000000000600052601160045260246000fd5b7f4e487b7100000000000000000000000000000000000000000000000000000000600052604160045260246000fd5b6000601f19601f8301169050919050565b7f696e76616c6964207468726573686f6c64210000000000000000000000000000600082015250565b7f56616c696461746f7273206d757374206e6f7420626520656d70747921000000600082015250565b620006028162000452565b81146200060e57600080fd5b50565b6200061c8162000466565b81146200062857600080fd5b50565b62000636816200047a565b81146200064257600080fd5b50565b61189080620006556000396000f3fe6080604052600436106100705760003560e01c80635df93c7e1161004e5780635df93c7e146100e3578063a9d571131461010c578063b6c1d66314610135578063ef1d0dec1461016057610070565b80630d11f0a414610075578063218130c51461009e578063453d7365146100ba575b600080fd5b34801561008157600080fd5b5061009c60048036038101906100979190610f26565b610189565b005b6100b860048036038101906100b39190611144565b6103ba565b005b3480156100c657600080fd5b506100e160048036038101906100dc9190611075565b610459565b005b3480156100ef57600080fd5b5061010a60048036038101906101059190611026565b61062a565b005b34801561011857600080fd5b50610133600480360381019061012e9190610fbf565b61072d565b005b34801561014157600080fd5b5061014a61081b565b60405161015791906113e6565b60405180910390f35b34801561016c57600080fd5b50610187600480360381019061018291906110e1565b610821565b005b6000600360009054906101000a900473ffffffffffffffffffffffffffffffffffffffff1673ffffffffffffffffffffffffffffffffffffffff16630e89341c836040518263ffffffff1660e01b81526004016101e691906113e6565b60006040518083038186803b1580156101fe57600080fd5b505afa158015610212573d6000803e3d6000fd5b505050506040513d6000823e3d601f19601f8201168201806040525081019061023b9190610f7e565b9050600360009054906101000a900473ffffffffffffffffffffffffffffffffffffffff1673ffffffffffffffffffffffffffffffffffffffff1663f5298aca338460016040518463ffffffff1660e01b815260040161029d939291906112f8565b600060405180830381600087803b1580156102b757600080fd5b505af11580156102cb573d6000803e3d6000fd5b50505050600360009054906101000a900473ffffffffffffffffffffffffffffffffffffffff1673ffffffffffffffffffffffffffffffffffffffff1663862440e2836040518263ffffffff1660e01b815260040161032a919061147a565b600060405180830381600087803b15801561034457600080fd5b505af1158015610358573d6000803e3d6000fd5b505050507f1e2291a96615bb70cc8395e1493605485ea5df7d0d6eed27295e95368bcd185e6001548585846040516103939493929190611433565b60405180910390a160018060008282546103ad9190611566565b9250508190555050505050565b600034116103fd576040517f08c379a00000000000000000000000000000000000000000000000000000000081526004016103f4906113a6565b60405180910390fd5b7fae6cc388e6cb7ad146f221b7fb33b2336c24effe84937090deacde6f0c9e4f2b60015483833460405161043494939291906114a8565b60405180910390a1600180600082825461044e9190611566565b925050819055505050565b6000610466856001610942565b9050600060018111156104a2577f4e487b7100000000000000000000000000000000000000000000000000000000600052602160045260246000fd5b8160018111156104db577f4e487b7100000000000000000000000000000000000000000000000000000000600052602160045260246000fd5b141561062357600360009054906101000a900473ffffffffffffffffffffffffffffffffffffffff1673ffffffffffffffffffffffffffffffffffffffff1663156e29f68560025460016040518463ffffffff1660e01b8152600401610543939291906112f8565b600060405180830381600087803b15801561055d57600080fd5b505af1158015610571573d6000803e3d6000fd5b505050506001600260008282546105889190611566565b92505081905550600360009054906101000a900473ffffffffffffffffffffffffffffffffffffffff1673ffffffffffffffffffffffffffffffffffffffff1663862440e260025485856040518463ffffffff1660e01b81526004016105f093929190611401565b600060405180830381600087803b15801561060a57600080fd5b505af115801561061e573d6000803e3d6000fd5b505050505b5050505050565b6000610637846002610942565b905060006001811115610673577f4e487b7100000000000000000000000000000000000000000000000000000000600052602160045260246000fd5b8160018111156106ac577f4e487b7100000000000000000000000000000000000000000000000000000000600052602160045260246000fd5b1415610727578273ffffffffffffffffffffffffffffffffffffffff166108fc839081150290604051600060405180830381858888f19350505050610726576040517f08c379a000000000000000000000000000000000000000000000000000000000815260040161071d906113c6565b60405180910390fd5b5b50505050565b600360009054906101000a900473ffffffffffffffffffffffffffffffffffffffff1673ffffffffffffffffffffffffffffffffffffffff1663f5298aca3384846040518463ffffffff1660e01b815260040161078c9392919061132f565b600060405180830381600087803b1580156107a657600080fd5b505af11580156107ba573d6000803e3d6000fd5b505050507fb58390b60b92155ee6f1561cf0f29316be0c0f26d248a7ff7e0b341f5fb2f8986001548385846040516107f594939291906114a8565b60405180910390a1600180600082825461080f9190611566565b92505081905550505050565b60055481565b600061082e856000610942565b90506000600181111561086a577f4e487b7100000000000000000000000000000000000000000000000000000000600052602160045260246000fd5b8160018111156108a3577f4e487b7100000000000000000000000000000000000000000000000000000000600052602160045260246000fd5b141561093b57600360009054906101000a900473ffffffffffffffffffffffffffffffffffffffff1673ffffffffffffffffffffffffffffffffffffffff1663156e29f68486856040518463ffffffff1660e01b81526004016109089392919061132f565b600060405180830381600087803b15801561092257600080fd5b505af1158015610936573d6000803e3d6000fd5b505050505b5050505050565b60006002600460003373ffffffffffffffffffffffffffffffffffffffff1673ffffffffffffffffffffffffffffffffffffffff16815260200190815260200160002060009054906101000a900460ff1660ff16146109d6576040517f08c379a00000000000000000000000000000000000000000000000000000000081526004016109cd90611366565b60405180910390fd5b600060066000856fffffffffffffffffffffffffffffffff166fffffffffffffffffffffffffffffffff168152602001908152602001600020600101541415610b06576040518060400160405280836002811115610a5d577f4e487b7100000000000000000000000000000000000000000000000000000000600052602160045260246000fd5b8152602001600181525060066000856fffffffffffffffffffffffffffffffff166fffffffffffffffffffffffffffffffff16815260200190815260200160002060008201518160000160006101000a81548160ff02191690836002811115610aef577f4e487b7100000000000000000000000000000000000000000000000000000000600052602160045260246000fd5b021790555060208201518160010155905050610c21565b600260076000856fffffffffffffffffffffffffffffffff166fffffffffffffffffffffffffffffffff16815260200190815260200160002060003373ffffffffffffffffffffffffffffffffffffffff1673ffffffffffffffffffffffffffffffffffffffff16815260200190815260200160002060009054906101000a900460ff1660ff161415610bce576040517f08c379a0000000000000000000000000000000000000000000000000000000008152600401610bc590611386565b60405180910390fd5b600160066000856fffffffffffffffffffffffffffffffff166fffffffffffffffffffffffffffffffff1681526020019081526020016000206001016000828254610c199190611566565b925050819055505b600260076000856fffffffffffffffffffffffffffffffff166fffffffffffffffffffffffffffffffff16815260200190815260200160002060003373ffffffffffffffffffffffffffffffffffffffff1673ffffffffffffffffffffffffffffffffffffffff16815260200190815260200160002060006101000a81548160ff021916908360ff16021790555060006001905060005460066000866fffffffffffffffffffffffffffffffff166fffffffffffffffffffffffffffffffff168152602001908152602001600020600101541415610cfe57600090505b60055460066000866fffffffffffffffffffffffffffffffff166fffffffffffffffffffffffffffffffff168152602001908152602001600020600101541415610d995760066000856fffffffffffffffffffffffffffffffff166fffffffffffffffffffffffffffffffff168152602001908152602001600020600080820160006101000a81549060ff0219169055600182016000905550505b8091505092915050565b6000610db6610db184611519565b6114f4565b905082815260208101848484011115610dce57600080fd5b610dd984828561165e565b509392505050565b6000610df4610def84611519565b6114f4565b905082815260208101848484011115610e0c57600080fd5b610e1784828561166d565b509392505050565b600081359050610e2e816117e7565b92915050565b600081359050610e43816117fe565b92915050565b60008083601f840112610e5b57600080fd5b8235905067ffffffffffffffff811115610e7457600080fd5b602083019150836001820283011115610e8c57600080fd5b9250929050565b600082601f830112610ea457600080fd5b8135610eb4848260208601610da3565b91505092915050565b600082601f830112610ece57600080fd5b8151610ede848260208601610de1565b91505092915050565b600081359050610ef681611815565b92915050565b600081359050610f0b8161182c565b92915050565b600081359050610f2081611843565b92915050565b600080600060408486031215610f3b57600080fd5b600084013567ffffffffffffffff811115610f5557600080fd5b610f6186828701610e49565b93509350506020610f7486828701610efc565b9150509250925092565b600060208284031215610f9057600080fd5b600082015167ffffffffffffffff811115610faa57600080fd5b610fb684828501610ebd565b91505092915050565b600080600060608486031215610fd457600080fd5b600084013567ffffffffffffffff811115610fee57600080fd5b610ffa86828701610e93565b935050602061100b86828701610f11565b925050604061101c86828701610efc565b9150509250925092565b60008060006060848603121561103b57600080fd5b600061104986828701610ee7565b935050602061105a86828701610e34565b925050604061106b86828701610efc565b9150509250925092565b6000806000806060858703121561108b57600080fd5b600061109987828801610ee7565b94505060206110aa87828801610e1f565b935050604085013567ffffffffffffffff8111156110c757600080fd5b6110d387828801610e49565b925092505092959194509250565b600080600080608085870312156110f757600080fd5b600061110587828801610ee7565b945050602061111687828801610f11565b935050604061112787828801610e1f565b925050606061113887828801610efc565b91505092959194509250565b6000806040838503121561115757600080fd5b600061116585828601610f11565b925050602083013567ffffffffffffffff81111561118257600080fd5b61118e85828601610e93565b9150509250929050565b6111a1816115bc565b82525050565b6111b08161163a565b82525050565b60006111c28385611555565b93506111cf83858461165e565b6111d88361172f565b840190509392505050565b60006111ee8261154a565b6111f88185611555565b935061120881856020860161166d565b6112118161172f565b840191505092915050565b6000611229601083611555565b915061123482611740565b602082019050919050565b600061124c601483611555565b915061125782611769565b602082019050919050565b600061126f601283611555565b915061127a82611792565b602082019050919050565b6000611292601483611555565b915061129d826117bb565b602082019050919050565b60006112b5600083611555565b91506112c0826117e4565b600082019050919050565b6112d48161161c565b82525050565b6112e38161164c565b82525050565b6112f281611626565b82525050565b600060608201905061130d6000830186611198565b61131a60208301856112cb565b61132760408301846111a7565b949350505050565b60006060820190506113446000830186611198565b61135160208301856112da565b61135e60408301846112cb565b949350505050565b6000602082019050818103600083015261137f8161121c565b9050919050565b6000602082019050818103600083015261139f8161123f565b9050919050565b600060208201905081810360008301526113bf81611262565b9050919050565b600060208201905081810360008301526113df81611285565b9050919050565b60006020820190506113fb60008301846112cb565b92915050565b600060408201905061141660008301866112cb565b81810360208301526114298184866111b6565b9050949350505050565b600060608201905061144860008301876112cb565b818103602083015261145b8185876111b6565b9050818103604083015261146f81846111e3565b905095945050505050565b600060408201905061148f60008301846112cb565b81810360208301526114a0816112a8565b905092915050565b60006080820190506114bd60008301876112cb565b6114ca60208301866112e9565b81810360408301526114dc81856111e3565b90506114eb60608301846112cb565b95945050505050565b60006114fe61150f565b905061150a82826116a0565b919050565b6000604051905090565b600067ffffffffffffffff82111561153457611533611700565b5b61153d8261172f565b9050602081019050919050565b600081519050919050565b600082825260208201905092915050565b60006115718261161c565b915061157c8361161c565b9250827fffffffffffffffffffffffffffffffffffffffffffffffffffffffffffffffff038211156115b1576115b06116d1565b5b828201905092915050565b60006115c7826115fc565b9050919050565b60006115d9826115fc565b9050919050565b60006fffffffffffffffffffffffffffffffff82169050919050565b600073ffffffffffffffffffffffffffffffffffffffff82169050919050565b6000819050919050565b600067ffffffffffffffff82169050919050565b60006116458261161c565b9050919050565b600061165782611626565b9050919050565b82818337600083830152505050565b60005b8381101561168b578082015181840152602081019050611670565b8381111561169a576000848401525b50505050565b6116a98261172f565b810181811067ffffffffffffffff821117156116c8576116c7611700565b5b80604052505050565b7f4e487b7100000000000000000000000000000000000000000000000000000000600052601160045260246000fd5b7f4e487b7100000000000000000000000000000000000000000000000000000000600052604160045260246000fd5b6000601f19601f8301169050919050565b7f4e6f7420612076616c696461746f722100000000000000000000000000000000600082015250565b7f4475706c69636174652056616c696461746f7221000000000000000000000000600082015250565b7f76616c7565206d757374206265203e2030210000000000000000000000000000600082015250565b7f4641494c454420544f205452414e534645523f21000000000000000000000000600082015250565b50565b6117f0816115bc565b81146117fb57600080fd5b50565b611807816115ce565b811461181257600080fd5b50565b61181e816115e0565b811461182957600080fd5b50565b6118358161161c565b811461184057600080fd5b50565b61184c81611626565b811461185757600080fd5b5056fea2646970667358221220f831defc9e5da77139015429536be3594cb21b2bd5a1332869e54586c51ac41b64736f6c63430008040033",
    "linkReferences": {},
    "deployedLinkReferences": {}
}