{
  "_format": "hh-sol-artifact-1",
  "contractName": "Minter",
  "sourceName": "contracts/Minter.sol",
  "abi": [
    {
      "inputs": [
        {
          "internalType": "address[]",
          "name": "_validators",
          "type": "address[]"
        },
        {
          "internalType": "uint16",
          "name": "_threshold",
          "type": "uint16"
        },
        {
          "internalType": "contract XPNet",
          "name": "_token",
          "type": "address"
        }
      ],
      "stateMutability": "nonpayable",
      "type": "constructor"
    },
    {
      "anonymous": false,
      "inputs": [
        {
          "indexed": false,
          "internalType": "uint256",
          "name": "action_id",
          "type": "uint256"
        },
        {
          "indexed": false,
          "internalType": "string",
          "name": "to",
          "type": "string"
        },
        {
          "indexed": false,
          "internalType": "uint256",
          "name": "value",
          "type": "uint256"
        }
      ],
      "name": "Transfer",
      "type": "event"
    },
    {
      "anonymous": false,
      "inputs": [
        {
          "indexed": false,
          "internalType": "uint256",
          "name": "action_id",
          "type": "uint256"
        },
        {
          "indexed": false,
          "internalType": "string",
          "name": "to",
          "type": "string"
        },
        {
          "indexed": false,
          "internalType": "uint256",
          "name": "id",
          "type": "uint256"
        },
        {
          "indexed": false,
          "internalType": "address",
          "name": "contract_addr",
          "type": "address"
        }
      ],
      "name": "TransferErc1155",
      "type": "event"
    },
    {
      "anonymous": false,
      "inputs": [
        {
          "indexed": false,
          "internalType": "uint256",
          "name": "action_id",
          "type": "uint256"
        },
        {
          "indexed": false,
          "internalType": "string",
          "name": "to",
          "type": "string"
        },
        {
          "indexed": false,
          "internalType": "string",
          "name": "data",
          "type": "string"
        }
      ],
      "name": "TransferErc721",
      "type": "event"
    },
    {
      "anonymous": false,
      "inputs": [
        {
          "indexed": false,
          "internalType": "uint256",
          "name": "action_id",
          "type": "uint256"
        },
        {
          "indexed": false,
          "internalType": "string",
          "name": "to",
          "type": "string"
        },
        {
          "indexed": false,
          "internalType": "uint256",
          "name": "value",
          "type": "uint256"
        }
      ],
      "name": "Unfreeze",
      "type": "event"
    },
    {
      "anonymous": false,
      "inputs": [
        {
          "indexed": false,
          "internalType": "uint256",
          "name": "action_id",
          "type": "uint256"
        },
        {
          "indexed": false,
          "internalType": "string",
          "name": "to",
          "type": "string"
        },
        {
          "indexed": false,
          "internalType": "string",
          "name": "data",
          "type": "string"
        }
      ],
      "name": "UnfreezeNft",
      "type": "event"
    },
    {
      "inputs": [
        {
          "internalType": "string",
          "name": "to",
          "type": "string"
        }
      ],
      "name": "freeze",
      "outputs": [],
      "stateMutability": "payable",
      "type": "function"
    },
    {
      "inputs": [
        {
          "internalType": "uint128",
          "name": "action_id",
          "type": "uint128"
        },
        {
          "internalType": "address",
          "name": "to",
          "type": "address"
        },
        {
          "internalType": "uint256",
          "name": "value",
          "type": "uint256"
        }
      ],
      "name": "validate_transfer",
      "outputs": [],
      "stateMutability": "nonpayable",
      "type": "function"
    },
    {
      "inputs": [
        {
          "internalType": "uint128",
          "name": "action_id",
          "type": "uint128"
        },
        {
          "internalType": "address",
          "name": "to",
          "type": "address"
        },
        {
          "internalType": "string",
          "name": "data",
          "type": "string"
        }
      ],
      "name": "validate_transfer_nft",
      "outputs": [],
      "stateMutability": "nonpayable",
      "type": "function"
    },
    {
      "inputs": [
        {
          "internalType": "uint128",
          "name": "action_id",
          "type": "uint128"
        },
        {
          "internalType": "address payable",
          "name": "to",
          "type": "address"
        },
        {
          "internalType": "uint256",
          "name": "value",
          "type": "uint256"
        }
      ],
      "name": "validate_unfreeze",
      "outputs": [],
      "stateMutability": "nonpayable",
      "type": "function"
    },
    {
      "inputs": [],
      "name": "validator_cnt",
      "outputs": [
        {
          "internalType": "uint256",
          "name": "",
          "type": "uint256"
        }
      ],
      "stateMutability": "view",
      "type": "function"
    },
    {
      "inputs": [
        {
          "internalType": "string",
          "name": "to",
          "type": "string"
        },
        {
          "internalType": "uint256",
          "name": "value",
          "type": "uint256"
        }
      ],
      "name": "withdraw",
      "outputs": [],
      "stateMutability": "nonpayable",
      "type": "function"
    },
    {
      "inputs": [
        {
          "internalType": "string",
          "name": "to",
          "type": "string"
        },
        {
          "internalType": "uint256",
          "name": "id",
          "type": "uint256"
        }
      ],
      "name": "withdraw_nft",
      "outputs": [],
      "stateMutability": "nonpayable",
      "type": "function"
    },
    {
      "inputs": [],
      "name": "wrap_token_id",
      "outputs": [
        {
          "internalType": "uint256",
          "name": "",
          "type": "uint256"
        }
      ],
      "stateMutability": "view",
      "type": "function"
    }
  ],
  "bytecode": "0x60806040526000600155600160025560006006553480156200002057600080fd5b5060405162001e5038038062001e508339818101604052810190620000469190620002eb565b60008351116200008d576040517f08c379a00000000000000000000000000000000000000000000000000000000081526004016200008490620003ca565b60405180910390fd5b60008261ffff16118015620000a7575082518261ffff1611155b620000e9576040517f08c379a0000000000000000000000000000000000000000000000000000000008152600401620000e090620003a8565b60405180910390fd5b60005b8351811015620001a65760026004600086848151811062000136577f4e487b7100000000000000000000000000000000000000000000000000000000600052603260045260246000fd5b602002602001015173ffffffffffffffffffffffffffffffffffffffff1673ffffffffffffffffffffffffffffffffffffffff16815260200190815260200160002060006101000a81548160ff021916908360ff16021790555080806200019d90620004eb565b915050620000ec565b5082516005819055508161ffff1660008190555080600360006101000a81548173ffffffffffffffffffffffffffffffffffffffff021916908373ffffffffffffffffffffffffffffffffffffffff16021790555050505062000648565b60006200021b620002158462000415565b620003ec565b905080838252602082019050828560208602820111156200023b57600080fd5b60005b858110156200026f578162000254888262000279565b8452602084019350602083019250506001810190506200023e565b5050509392505050565b6000815190506200028a81620005fa565b92915050565b600082601f830112620002a257600080fd5b8151620002b484826020860162000204565b91505092915050565b600081519050620002ce8162000614565b92915050565b600081519050620002e5816200062e565b92915050565b6000806000606084860312156200030157600080fd5b600084015167ffffffffffffffff8111156200031c57600080fd5b6200032a8682870162000290565b93505060206200033d86828701620002d4565b92505060406200035086828701620002bd565b9150509250925092565b60006200036960128362000444565b91506200037682620005a8565b602082019050919050565b600062000390601d8362000444565b91506200039d82620005d1565b602082019050919050565b60006020820190508181036000830152620003c3816200035a565b9050919050565b60006020820190508181036000830152620003e58162000381565b9050919050565b6000620003f86200040b565b9050620004068282620004b5565b919050565b6000604051905090565b600067ffffffffffffffff82111562000433576200043262000568565b5b602082029050602081019050919050565b600082825260208201905092915050565b600062000462826200048b565b9050919050565b6000620004768262000455565b9050919050565b600061ffff82169050919050565b600073ffffffffffffffffffffffffffffffffffffffff82169050919050565b6000819050919050565b620004c08262000597565b810181811067ffffffffffffffff82111715620004e257620004e162000568565b5b80604052505050565b6000620004f882620004ab565b91507fffffffffffffffffffffffffffffffffffffffffffffffffffffffffffffffff8214156200052e576200052d62000539565b5b600182019050919050565b7f4e487b7100000000000000000000000000000000000000000000000000000000600052601160045260246000fd5b7f4e487b7100000000000000000000000000000000000000000000000000000000600052604160045260246000fd5b6000601f19601f8301169050919050565b7f696e76616c6964207468726573686f6c64210000000000000000000000000000600082015250565b7f56616c696461746f7273206d757374206e6f7420626520656d70747921000000600082015250565b620006058162000455565b81146200061157600080fd5b50565b6200061f8162000469565b81146200062b57600080fd5b50565b62000639816200047d565b81146200064557600080fd5b50565b6117f880620006586000396000f3fe60806040526004361061007b5760003560e01c80635df93c7e1161004e5780635df93c7e14610126578063b037c8e81461014f578063b6c1d66314610178578063e6a86fb0146101a35761007b565b80630d11f0a41461008057806330b39a62146100a9578063453d7365146100d257806347c81057146100fb575b600080fd5b34801561008c57600080fd5b506100a760048036038101906100a29190610f31565b6101bf565b005b3480156100b557600080fd5b506100d060048036038101906100cb919061100b565b6103d7565b005b3480156100de57600080fd5b506100f960048036038101906100f491906110ae565b6104c4565b005b34801561010757600080fd5b50610110610695565b60405161011d9190611399565b60405180910390f35b34801561013257600080fd5b5061014d6004803603810190610148919061105f565b61069b565b005b34801561015b57600080fd5b506101766004803603810190610171919061111a565b61079e565b005b34801561018457600080fd5b5061018d6108c0565b60405161019a9190611399565b60405180910390f35b6101bd60048036038101906101b89190610f89565b6108c6565b005b6000600360009054906101000a900473ffffffffffffffffffffffffffffffffffffffff1673ffffffffffffffffffffffffffffffffffffffff16630e89341c836040518263ffffffff1660e01b815260040161021c9190611399565b60006040518083038186803b15801561023457600080fd5b505afa158015610248573d6000803e3d6000fd5b505050506040513d6000823e3d601f19601f820116820180604052508101906102719190610fca565b9050600360009054906101000a900473ffffffffffffffffffffffffffffffffffffffff1673ffffffffffffffffffffffffffffffffffffffff1663f5298aca338460016040518463ffffffff1660e01b81526004016102d3939291906112ab565b600060405180830381600087803b1580156102ed57600080fd5b505af1158015610301573d6000803e3d6000fd5b50505050600360009054906101000a900473ffffffffffffffffffffffffffffffffffffffff1673ffffffffffffffffffffffffffffffffffffffff1663862440e2836040518263ffffffff1660e01b8152600401610360919061146b565b600060405180830381600087803b15801561037a57600080fd5b505af115801561038e573d6000803e3d6000fd5b505050507f1e2291a96615bb70cc8395e1493605485ea5df7d0d6eed27295e95368bcd185e6001548585846040516103c994939291906113e6565b60405180910390a150505050565b600360009054906101000a900473ffffffffffffffffffffffffffffffffffffffff1673ffffffffffffffffffffffffffffffffffffffff1663f5298aca33600654846040518463ffffffff1660e01b8152600401610438939291906112e2565b600060405180830381600087803b15801561045257600080fd5b505af1158015610466573d6000803e3d6000fd5b505050507fe3a9e350dc360716647bf12219a620e6f9e64d2f2ee8171da1d13619d3deaf2e600154838360405161049f9392919061142d565b60405180910390a160018060008282546104b9919061150b565b925050819055505050565b60006104d1856001610962565b90506000600181111561050d577f4e487b7100000000000000000000000000000000000000000000000000000000600052602160045260246000fd5b816001811115610546577f4e487b7100000000000000000000000000000000000000000000000000000000600052602160045260246000fd5b141561068e57600360009054906101000a900473ffffffffffffffffffffffffffffffffffffffff1673ffffffffffffffffffffffffffffffffffffffff1663156e29f68560025460016040518463ffffffff1660e01b81526004016105ae939291906112ab565b600060405180830381600087803b1580156105c857600080fd5b505af11580156105dc573d6000803e3d6000fd5b505050506001600260008282546105f3919061150b565b92505081905550600360009054906101000a900473ffffffffffffffffffffffffffffffffffffffff1673ffffffffffffffffffffffffffffffffffffffff1663862440e260025485856040518463ffffffff1660e01b815260040161065b939291906113b4565b600060405180830381600087803b15801561067557600080fd5b505af1158015610689573d6000803e3d6000fd5b505050505b5050505050565b60065481565b60006106a8846002610962565b9050600060018111156106e4577f4e487b7100000000000000000000000000000000000000000000000000000000600052602160045260246000fd5b81600181111561071d577f4e487b7100000000000000000000000000000000000000000000000000000000600052602160045260246000fd5b1415610798578273ffffffffffffffffffffffffffffffffffffffff166108fc839081150290604051600060405180830381858888f19350505050610797576040517f08c379a000000000000000000000000000000000000000000000000000000000815260040161078e90611379565b60405180910390fd5b5b50505050565b60006107ab846000610962565b9050600060018111156107e7577f4e487b7100000000000000000000000000000000000000000000000000000000600052602160045260246000fd5b816001811115610820577f4e487b7100000000000000000000000000000000000000000000000000000000600052602160045260246000fd5b14156108ba57600360009054906101000a900473ffffffffffffffffffffffffffffffffffffffff1673ffffffffffffffffffffffffffffffffffffffff1663156e29f684600654856040518463ffffffff1660e01b8152600401610887939291906112e2565b600060405180830381600087803b1580156108a157600080fd5b505af11580156108b5573d6000803e3d6000fd5b505050505b50505050565b60055481565b60003411610909576040517f08c379a000000000000000000000000000000000000000000000000000000000815260040161090090611359565b60405180910390fd5b7f285755642f6d17c5bcd0bc60626e5734dd311b54dd4c6cab8425a6b3bc45ddc6600154823460405161093e9392919061142d565b60405180910390a16001806000828254610958919061150b565b9250508190555050565b60006002600460003373ffffffffffffffffffffffffffffffffffffffff1673ffffffffffffffffffffffffffffffffffffffff16815260200190815260200160002060009054906101000a900460ff1660ff16146109f6576040517f08c379a00000000000000000000000000000000000000000000000000000000081526004016109ed90611319565b60405180910390fd5b600060076000856fffffffffffffffffffffffffffffffff166fffffffffffffffffffffffffffffffff168152602001908152602001600020600101541415610b26576040518060400160405280836002811115610a7d577f4e487b7100000000000000000000000000000000000000000000000000000000600052602160045260246000fd5b8152602001600181525060076000856fffffffffffffffffffffffffffffffff166fffffffffffffffffffffffffffffffff16815260200190815260200160002060008201518160000160006101000a81548160ff02191690836002811115610b0f577f4e487b7100000000000000000000000000000000000000000000000000000000600052602160045260246000fd5b021790555060208201518160010155905050610c41565b600260086000856fffffffffffffffffffffffffffffffff166fffffffffffffffffffffffffffffffff16815260200190815260200160002060003373ffffffffffffffffffffffffffffffffffffffff1673ffffffffffffffffffffffffffffffffffffffff16815260200190815260200160002060009054906101000a900460ff1660ff161415610bee576040517f08c379a0000000000000000000000000000000000000000000000000000000008152600401610be590611339565b60405180910390fd5b600160076000856fffffffffffffffffffffffffffffffff166fffffffffffffffffffffffffffffffff1681526020019081526020016000206001016000828254610c39919061150b565b925050819055505b600260086000856fffffffffffffffffffffffffffffffff166fffffffffffffffffffffffffffffffff16815260200190815260200160002060003373ffffffffffffffffffffffffffffffffffffffff1673ffffffffffffffffffffffffffffffffffffffff16815260200190815260200160002060006101000a81548160ff021916908360ff16021790555060006001905060005460076000866fffffffffffffffffffffffffffffffff166fffffffffffffffffffffffffffffffff168152602001908152602001600020600101541415610d1e57600090505b60055460076000866fffffffffffffffffffffffffffffffff166fffffffffffffffffffffffffffffffff168152602001908152602001600020600101541415610db95760076000856fffffffffffffffffffffffffffffffff166fffffffffffffffffffffffffffffffff168152602001908152602001600020600080820160006101000a81549060ff0219169055600182016000905550505b8091505092915050565b6000610dd6610dd1846114be565b611499565b905082815260208101848484011115610dee57600080fd5b610df98482856115dd565b509392505050565b6000610e14610e0f846114be565b611499565b905082815260208101848484011115610e2c57600080fd5b610e378482856115ec565b509392505050565b600081359050610e4e81611766565b92915050565b600081359050610e638161177d565b92915050565b60008083601f840112610e7b57600080fd5b8235905067ffffffffffffffff811115610e9457600080fd5b602083019150836001820283011115610eac57600080fd5b9250929050565b600082601f830112610ec457600080fd5b8135610ed4848260208601610dc3565b91505092915050565b600082601f830112610eee57600080fd5b8151610efe848260208601610e01565b91505092915050565b600081359050610f1681611794565b92915050565b600081359050610f2b816117ab565b92915050565b600080600060408486031215610f4657600080fd5b600084013567ffffffffffffffff811115610f6057600080fd5b610f6c86828701610e69565b93509350506020610f7f86828701610f1c565b9150509250925092565b600060208284031215610f9b57600080fd5b600082013567ffffffffffffffff811115610fb557600080fd5b610fc184828501610eb3565b91505092915050565b600060208284031215610fdc57600080fd5b600082015167ffffffffffffffff811115610ff657600080fd5b61100284828501610edd565b91505092915050565b6000806040838503121561101e57600080fd5b600083013567ffffffffffffffff81111561103857600080fd5b61104485828601610eb3565b925050602061105585828601610f1c565b9150509250929050565b60008060006060848603121561107457600080fd5b600061108286828701610f07565b935050602061109386828701610e54565b92505060406110a486828701610f1c565b9150509250925092565b600080600080606085870312156110c457600080fd5b60006110d287828801610f07565b94505060206110e387828801610e3f565b935050604085013567ffffffffffffffff81111561110057600080fd5b61110c87828801610e69565b925092505092959194509250565b60008060006060848603121561112f57600080fd5b600061113d86828701610f07565b935050602061114e86828701610e3f565b925050604061115f86828701610f1c565b9150509250925092565b61117281611561565b82525050565b611181816115cb565b82525050565b600061119383856114fa565b93506111a08385846115dd565b6111a9836116ae565b840190509392505050565b60006111bf826114ef565b6111c981856114fa565b93506111d98185602086016115ec565b6111e2816116ae565b840191505092915050565b60006111fa6010836114fa565b9150611205826116bf565b602082019050919050565b600061121d6014836114fa565b9150611228826116e8565b602082019050919050565b60006112406012836114fa565b915061124b82611711565b602082019050919050565b60006112636014836114fa565b915061126e8261173a565b602082019050919050565b60006112866000836114fa565b915061129182611763565b600082019050919050565b6112a5816115c1565b82525050565b60006060820190506112c06000830186611169565b6112cd602083018561129c565b6112da6040830184611178565b949350505050565b60006060820190506112f76000830186611169565b611304602083018561129c565b611311604083018461129c565b949350505050565b60006020820190508181036000830152611332816111ed565b9050919050565b6000602082019050818103600083015261135281611210565b9050919050565b6000602082019050818103600083015261137281611233565b9050919050565b6000602082019050818103600083015261139281611256565b9050919050565b60006020820190506113ae600083018461129c565b92915050565b60006040820190506113c9600083018661129c565b81810360208301526113dc818486611187565b9050949350505050565b60006060820190506113fb600083018761129c565b818103602083015261140e818587611187565b9050818103604083015261142281846111b4565b905095945050505050565b6000606082019050611442600083018661129c565b818103602083015261145481856111b4565b9050611463604083018461129c565b949350505050565b6000604082019050611480600083018461129c565b818103602083015261149181611279565b905092915050565b60006114a36114b4565b90506114af828261161f565b919050565b6000604051905090565b600067ffffffffffffffff8211156114d9576114d861167f565b5b6114e2826116ae565b9050602081019050919050565b600081519050919050565b600082825260208201905092915050565b6000611516826115c1565b9150611521836115c1565b9250827fffffffffffffffffffffffffffffffffffffffffffffffffffffffffffffffff0382111561155657611555611650565b5b828201905092915050565b600061156c826115a1565b9050919050565b600061157e826115a1565b9050919050565b60006fffffffffffffffffffffffffffffffff82169050919050565b600073ffffffffffffffffffffffffffffffffffffffff82169050919050565b6000819050919050565b60006115d6826115c1565b9050919050565b82818337600083830152505050565b60005b8381101561160a5780820151818401526020810190506115ef565b83811115611619576000848401525b50505050565b611628826116ae565b810181811067ffffffffffffffff821117156116475761164661167f565b5b80604052505050565b7f4e487b7100000000000000000000000000000000000000000000000000000000600052601160045260246000fd5b7f4e487b7100000000000000000000000000000000000000000000000000000000600052604160045260246000fd5b6000601f19601f8301169050919050565b7f4e6f7420612076616c696461746f722100000000000000000000000000000000600082015250565b7f4475706c69636174652056616c696461746f7221000000000000000000000000600082015250565b7f76616c7565206d757374206265203e2030210000000000000000000000000000600082015250565b7f4641494c454420544f205452414e534645523f21000000000000000000000000600082015250565b50565b61176f81611561565b811461177a57600080fd5b50565b61178681611573565b811461179157600080fd5b50565b61179d81611585565b81146117a857600080fd5b50565b6117b4816115c1565b81146117bf57600080fd5b5056fea26469706673582212206e75d06d7ede1a5faef40bee97e1af2820c41ae7e1400cdbc2d9378f65d3078e64736f6c63430008040033",
  "linkReferences": {},
  "deployedLinkReferences": {}
}